:100000000C9424010C9441010C9441010C94410185
:100010000C9441010C9441010C9441010C94410158
:100020000C9441010C9441010C9441010C949004F6
:100030000C9441010C9441010C9441010C94410138
:100040000C9441010C9441010C9441010C94410128
:100050000C9441010C9441010C9441010C94410118
:100060000C9441010C944101000000000000005F6D
:1000700000000007000700147F147F14242A7F2A41
:10008000122313086462364955225000050300000C
:10009000001C2241000041221C0014083E081408E4
:1000A000083E0808005030000008080808080060F2
:1000B00060000020100804023E5149453E00427F86
:1000C000400042615149462141454B311814127F8D
:1000D0001027454545393C4A494930017109050316
:1000E0003649494936064949291E0036360000007E
:1000F0005636000008142241001414141414004150
:100100002214080201510906324979413E7E11113B
:10011000117E7F494949363E414141227F4141227A
:100120001C7F494949417F090909013E4149497AF2
:100130007F0808087F00417F41002040413F017F48
:10014000081422417F404040407F020C027F7F0420
:1001500008107F3E4141413E7F090909063E415159
:10016000215E7F09192946464949493101017F012C
:10017000013F4040403F1F2040201F3F4038403F4C
:100180006314081463070870080761514945430068
:100190007F41410002040810200041417F00040219
:1001A0000102044040404040000102040020545439
:1001B00054787F48444438384444442038444448C0
:1001C0007F3854545418087E0901020C5252523E92
:1001D0007F0804047800447D40002040443D007FB7
:1001E0001028440000417F40007C041804787C08FB
:1001F00004047838444444387C1414140808141453
:10020000187C7C080404084854545420043F44409B
:10021000203C4040207C1C2040201C3C4030403C86
:1002200044281028440C5050503C4464544C440022
:100230000836410000007F00000041360800100829
:10024000081008000000000011241FBECFEFD8E006
:10025000DEBFCDBF11E0A0E0B1E0E8E3FBE102C00A
:1002600005900D92A035B107D9F723E0A0E5B1E0E4
:1002700001C01D92AB3BB207E1F70E94B9070C9495
:100280009A0D0C9400004F9B12C080917D019091BB
:100290007E01029790937E0180937D018091790188
:1002A00090917A01029790937A0180937901189B3B
:1002B00012C080917D0190917E01029690937E0103
:1002C00080937D018091790190917A0102969093BB
:1002D0007A0180937901089589B18170909100012C
:1002E000992309F181111FC030E020E095E0929F31
:1002F000F001939FF00D1124E05BFE4FDF01149697
:100300004481411113C020917B0130917C012B5F0E
:100310003F4F318320832091790130917A013383DB
:10032000228391E09C938093000108952F5F3F4FBB
:1003300025303105E1F6F7CF489B08952FEF80E790
:1003400092E0215080409040E1F700C00000F4CFDF
:10035000E0E5F1E0148211861686138A108E089566
:100360000F931F93CF93DF93CBE4D0E007E210E02D
:1003700080917301909174010E944D0ABE010E9408
:10038000F807059690936A01809369018091730143
:10039000909174010E944D0AB8010E94F8070596D9
:1003A00090936C0180936B012091690130916A01F7
:1003B00080917B0190917C010597281739072CF1DA
:1003C0002091690130916A0180917B0190917C01BB
:1003D000059682179307CCF020916B0130916C0148
:1003E0008091790190917A010597281739076CF06F
:1003F00020916B0130916C018091790190917A018B
:100400000596821793070CF0B3CF80916B01909102
:100410006C0148970CF4ACCF8091690190916A010E
:100420008A970CF4A5CF81E080936D01DF91CF9185
:100430001F910F91089525E0289FF001299FF00D4D
:100440001124E05BFE4F808191810296918380832D
:1004500080819181833591054CF4828193811816B6
:10046000190624F4828193818F9704F10E94190563
:1004700061E087E091E00E94F3050E9408062FEFFB
:1004800087EA91E6215080409040E1F700C00000EB
:100490001092700110926F0110927201109271010E
:1004A0000E94B0010E94A8010C949C0184818823C1
:1004B00091F1208131818091690190916A01281721
:1004C00039074CF1208131818091690190916A0155
:1004D000039682179307FCF02281338180916B0190
:1004E00090916C0128173907B4F0228133818091F3
:1004F0006B0190916C0103968217930764F014824C
:100500008091710190917201019690937201809394
:1005100071010C94B0010895FF920F931F93CF9334
:10052000DF93CDB7DEB76E970FB6F894DEBF0FBE80
:10053000CDBF0E94190580916E01811130C061E02C
:1005400081E00E94030661E081E191E00E94F305F1
:100550006CE081E00E94030661E08FE191E00E947F
:10056000F3050E940806489910C081E080936E014F
:100570006E960FB6F894DEBF0FBECDBFDF91CF9160
:100580001F910F91FF900C9408062FEF80E792E0E7
:10059000215080409040E1F700C00000E4CF8091FE
:1005A0006F0190917001803197421CF10E941905F2
:1005B00061E087E091E00E94F3050E9408068FEF5A
:1005C00097EA21E6815090402040E1F700C000000A
:1005D0001092700110926F011092720110927101CD
:1005E00010926E010E94B0010E94A8010E949C011D
:1005F000BFCF80917101909172010A976CF10E94B6
:10060000190561E08BE291E00E94F3050E94080663
:100610008FEF97EA21E6815090402040E1F700C03B
:10062000000010926E011092700110926F011092F2
:10063000720110927101489905C00E94B0010E9498
:10064000A80196CF809173019091740101969093C7
:10065000740180937301EFCF20917D0130917E0171
:1006600040917F015091800160917D0170917E01E8
:1006700080917F01909180012D5F63500E941D0643
:100680002091790130917A0140917B0150917C0158
:100690006091790170917A0180917B0190917C0148
:1006A0004B5F85500E941D0680916D01811136C1FE
:1006B00010E000E095E0F92EF09EF001F19EF00DC3
:1006C0001124E05BFE4F8481882351F062817381A5
:1006D0008081918141E00E943505C8010E941B0282
:1006E0000F5F1F4F0530110539F710E000E085E07E
:1006F000F82EF09EF001F19EF00D1124E05BFE4F0C
:100700008481882391F120813181809169019091C8
:100710006A01281739074CF12081318180916901E4
:1007200090916A01039682179307FCF0228133812E
:1007300080916B0190916C0128173907B4F02281E8
:10074000338180916B0190916C010396821793071E
:1007500064F01482809171019091720101969093DE
:100760007201809371010E94B0010F5F1F4F05302D
:10077000110509F0BECF80916D01882309F481C075
:100780008091690190916A01181619060CF077C0E2
:100790008091690190916A01833591050CF06FC0D9
:1007A00080916B0190916C01181619060CF067C0CE
:1007B00080916B0190916C018F970CF060C020913B
:1007C000690130916A0180917F01909180010397C6
:1007D0002817390724F12091690130916A0180912D
:1007E0007F0190918001039682179307C4F02091B6
:1007F0006B0130916C0180917D0190917E01039796
:100800002817390764F020916B0130916C018091B9
:100810007D0190917E0103968217930784F52091C4
:10082000690130916A0180917B0190917C0105976B
:100830002817390734F12091690130916A018091BC
:100840007B0190917C01059682179307D4F020914B
:100850006B0130916C018091790190917A0105973B
:100860002817390774F020916B0130916C01809149
:10087000790190917A0105968217930714F00E94EE
:10088000B00180917101909172019F938F9389E3E0
:1008900091E09F938F938E01005F1F4F1F930F93E3
:1008A0000E94660A61E081E00E94030661E0C801DF
:1008B0000E94F30580916F01909170019F938F9337
:1008C00087E491E09F938F930F5011091F930F932B
:1008D0000E94660A61E081E00E94030661E0C801AF
:1008E0000E94F3050FB6F894DEBF0FBECDBF40CE19
:1008F00060916B0170916C018091690190916A0126
:10090000610F41E0800F0E9435051F5F133081F7B2
:100910000F5F033009F4CCCE10E0EACF00E0FCCF4B
:100920008F938FB78F939F9380916F0190917001F8
:100930008C599F4F9093700180936F019F918F917D
:100940008FBF8F911895E1E8F0E080818860808307
:1009500088E09DE39093890080938800AFE6B0E043
:100960008C9182608C938081856080830895299822
:100970006623A9F02B9A27E030E090E0AC01022E2C
:1009800002C0559547950A94E2F740FF0AC02C9A99
:100990002D9A2D982150310988F7299A08952B987E
:1009A000EACF2C98F5CF60E00C94B704CF93DF9397
:1009B000219A229A239A249A259A2A9A299A8FE38D
:1009C0009CE90197F1F700C000002A989FEF2AE602
:1009D00083E0915020408040E1F700C000002A9A57
:1009E000299881E20E94D30483E10E94D30486E027
:1009F0000E94D30482EC0E94D30480E20E94D304BC
:100A000089E00E94D30480E80E94D30480E40E941D
:100A1000D304C8EFD1E061E080E00E94B7042197E1
:100A2000D1F788E00E94D3048CE0DF91CF910C9441
:100A3000D30480E80E94D30480E40E94D30410927F
:100A4000B9031092BA03E1ECF1E088EF91E0DF0125
:100A50009C011D9221503040E1F70895811103C09F
:100A600084E20C94D30480E2FCCF962F9695969561
:100A70009695E82FF0E084E5989FE00DF11D112494
:100A8000EF53FE4F2081677081E090E001C0880F36
:100A90006A95EAF7442319F0282B2083089580955E
:100AA0002823FBCF8F929F92AF92BF92DF92EF925B
:100AB000FF920F931F93CF93DF9300D000D00F923C
:100AC000CDB7DEB7E82FF62E80320CF44DC0E052E1
:100AD00085E0E802B001112468597F4F45E050E0FD
:100AE000CE0101960E945D0A8E010F5F1F4F95E0B7
:100AF000F99E5001112487E0F89E40011124E12C59
:100B0000EA141B040CF463C08091B9038F5F9F2D1E
:100B1000990F990F9F0D890F8093B903843558F071
:100B20008091BA031092B9038F5F97E0F99E800D10
:100B300011248093BA038091BA03803320F010927D
:100B4000B9031092BA030F900F900F900F900F906F
:100B5000DF91CF911F910F91FF90EF90DF90BF90A9
:100B6000AF909F908F900895EE0FFF0BEF57FE4FC1
:100B7000008111810115110509F0B9CF45E050E060
:100B800068E670E0ADCFED0D5E0D8E2D6F2D0E94ED
:100B9000EC07D801A80FB11D2C9130E08D2D0E94DB
:100BA000EC0702C0359527958A95E2F741E020FFD2
:100BB00040E06E2F852F0E943505D394E091BA0353
:100BC0005091B903D8141904F4F2E39499CFD12CBD
:100BD000F5CFE82F803234F4EE0FFF0BEF57FE4FC6
:100BE0007183608308951F93CF93DF93162FEC01D9
:100BF0008991811104C0DF91CF911F910895612FD8
:100C00000E945205F5CF8093B9036093BA0308950B
:100C1000CF93DF9380E80E94D30480E40E94D30442
:100C2000C1ECD1E061E089910E94B70483E0C93B47
:100C3000D807C1F7DF91CF9108954F925F926F92DD
:100C40007F928F929F92AF92BF92CF92DF92EF925C
:100C5000FF920F931F93CF93DF93CDB7DEB76297C9
:100C60000FB6F894DEBF0FBECDBF8A8B698B122FF3
:100C7000481B550BCA01550FAA0BBB0B89839A83DE
:100C8000AB83BC83BC01CD010E94300969837A83A8
:100C90008B839C83A12F4989A41BBB0BCD01BB0F68
:100CA000AA0BBB0B8D839E83AF83B887BC01CD019C
:100CB0000E9430096D837E838F83988729813A81D2
:100CC0004B815C815F7729873A874B875C87DC01A2
:100CD000CB01BF778D879E87AF87B88B9C01AD0115
:100CE00069857A858B859C850E94BC0987FDADC08E
:100CF00069857A858B859C850E94FF0869877A873C
:100D00008B879C879985092F10E0292F30E050E0D0
:100D100040E029873A874B875C87CA01B9010E9466
:100D2000300969877A878B879C876B017C01AC01CE
:100D30009B0169817A818B819C810E948D086983E6
:100D40007A838B839C832B013C01A70196016D81E3
:100D50007E818F8198850E948D086B017C019A8924
:100D6000892F90E0B0E0A0E089839A83AB83BC83B5
:100D7000BC01CD010E942E0969837A838B839C83F9
:100D80003989232F30E050E040E02D833E834F83AC
:100D90005887CA01B9010E942E096D837E838F8313
:100DA00098871E861D866D817E818F8198850E9421
:100DB000FF0869877A878B879C874B0169817A81D5
:100DC0008B819C810E94FF0869877A878B879C872B
:100DD00041E0682D89850E943505A3019201698152
:100DE0007A818B819C810E94210869837A838B831D
:100DF0009C83A70196016D817E818F8198850E94D9
:100E000021086D837E838F8398874D855E854F5F34
:100E10005F4F5E874D87041715072CF662960FB655
:100E2000F894DEBF0FBECDBFDF91CF911F910F9120
:100E3000FF90EF90DF90CF90BF90AF909F908F90FA
:100E40007F906F905F904F9008956D857E858F8520
:100E5000988952CF9F92AF92BF92CF92DF92EF923A
:100E6000FF920F931F93CF93DF93F82EE62E142F4C
:100E7000C42FD0E0042F080F41E0802F0E943505D9
:100E800041E06E2D802F0E9435051E0D42E0612F3E
:100E90008F2D0E94350543E0612F8F2D0E9435056F
:100EA00081E090E06C01CC1ADD0A10E000E00C1744
:100EB0001D0764F0DF91CF911F910F91FF90EF908C
:100EC000DF90CF90BF90AF909F9008950F5F1F4F1E
:100ED000C801880F991F8C0D9D1D1C141D040CF456
:100EE00041C06C012FEFC21AD20AC017D10714F308
:100EF00041E0BE2CB00E6B2D9C2E9F0C892D0E94C4
:100F0000350542E06B2DAF2CAC1A8A2D0E943505B9
:100F100041E06E2D601B892D0E94350541E06B2D4F
:100F20008A2D0E943505C017D10709F241E0BC2E79
:100F3000BE0C6B2D9F2C900E892D0E94350541E033
:100F40006B2DAF2CA01A8A2D0E94350541E06E2D25
:100F50006C1B892D0E94350541E06B2D8A2D0E9466
:100F60003505A5CF21979E01220F331F821B930BBE
:100F7000B8CF5098589A57985F9A2098289A7894A2
:100F80000E94D6040E94A3042AE030E0309380013E
:100F900020937F0188E190E090937E0180937D0112
:100FA00030937C0120937B0190937A0180937901A7
:100FB0000E94A8010E94B0010E9443010E946C019E
:100FC0000E948C022FEF80E792E0215080409040F9
:100FD000E1F700C00000F0CF991B79E004C0991F31
:100FE000961708F0961B881F7A95C9F78095089583
:100FF00097FB072E16F4009407D077FD09D00E94C6
:101000000C0807FC05D03EF4909581959F4F0895FC
:10101000709561957F4F0895AA1BBB1B51E107C0D6
:10102000AA1FBB1FA617B70710F0A61BB70B881F78
:10103000991F5A95A9F780959095BC01CD01089507
:101040005058BB27AA270E9438080C9482090E9496
:10105000740938F00E947B0920F039F49F3F19F49D
:1010600026F40C9471090EF4E095E7FB0C946B09DF
:10107000E92F0E94930958F3BA1762077307840790
:10108000950720F079F4A6F50C94B5090EF4E095D7
:101090000B2EBA2FA02D0B01B90190010C01CA0132
:1010A000A0011124FF27591B99F0593F50F4503EDD
:1010B00068F11A16F040A22F232F342F4427585FCF
:1010C000F3CF469537952795A795F0405395C9F7E7
:1010D0007EF41F16BA0B620B730B840BBAF091509F
:1010E000A1F0FF0FBB1F661F771F881FC2F70EC03E
:1010F000BA0F621F731F841F48F487957795679511
:10110000B795F7959E3F08F0B0CF9395880F08F0FC
:101110009927EE0F9795879508950E94A1080C9442
:1011200082090E947B0958F00E94740940F029F45A
:101130005F3F29F00C946B0951110C94B6090C9483
:1011400071090E94930968F39923B1F3552391F330
:10115000951B550BBB27AA2762177307840738F026
:101160009F5F5F4F220F331F441FAA1FA9F335D083
:101170000E2E3AF0E0E832D091505040E695001C37
:10118000CAF72BD0FE2F29D0660F771F881FBB1FF1
:10119000261737074807AB07B0E809F0BB0B802DCF
:1011A000BF01FF2793585F4F3AF09E3F510578F0FB
:1011B0000C946B090C94B6095F3FE4F3983ED4F3AA
:1011C000869577956795B795F7959F5FC9F7880FCF
:1011D000911D9695879597F90895E1E0660F771F21
:1011E000881FBB1F621773078407BA0720F0621BB2
:1011F000730B840BBA0BEE1F88F7E09508950E94DD
:101200009B0988F09F5798F0B92F9927B751B0F0F4
:10121000E1F0660F771F881F991F1AF0BA95C9F77A
:1012200014C0B13091F00E94B509B1E008950C945A
:10123000B509672F782F8827B85F39F0B93FCCF30D
:10124000869577956795B395D9F73EF490958095F7
:10125000709561957F4F8F4F9F4F0895E89409C017
:1012600097FB3EF490958095709561957F4F8F4FD9
:101270009F4F9923A9F0F92F96E9BB279395F695EF
:10128000879577956795B795F111F8CFFAF4BB0F6D
:1012900011F460FF1BC06F5F7F4F8F4F9F4F16C0D1
:1012A000882311F096E911C0772321F09EE8872F5B
:1012B000762F05C0662371F096E8862F70E060E017
:1012C0002AF09A95660F771F881FDAF7880F969590
:1012D000879597F9089597F99F6780E870E060E037
:1012E00008959FEF80EC089500240A9416161706BF
:1012F00018060906089500240A9412161306140607
:1013000005060895092E0394000C11F4882352F069
:10131000BB0F40F4BF2B11F460FF04C06F5F7F4F21
:101320008F4F9F4F089557FD9058440F551F59F008
:101330005F3F71F04795880F97FB991F61F09F3FC2
:1013400079F087950895121613061406551FF2CFEB
:101350004695F1DF08C0161617061806991FF1CF3B
:1013600086957105610508940895E894BB27662762
:101370007727CB0197F908950E94C10908F48FEFF0
:101380000895990F0008550FAA0BE0E8FEEF161616
:101390001706E807F907C0F012161306E407F50769
:1013A00098F0621B730B840B950B39F40A2661F0DD
:1013B000232B242B252B21F408950A2609F4A14080
:1013C000A6958FEF811D811D0895CF92DF92EF9238
:1013D000FF92CF93DF93CDB7DEB72A970FB6F8947D
:1013E000DEBF0FBECDBF89879A87A985BA852D91AB
:1013F0003D914D915C9129833A834B835C83232BF0
:10140000242B252B41F424E239ED4BE557E02983C9
:101410003A834B835C8369817A818B819C812DE146
:1014200033EF41E050E00E94000D69017A01A7EA24
:10143000B1E49B01AC010E941F0D69837A838B8309
:101440009C83ACEEB4EFA70196010E942D0D9B0189
:10145000AC0189819A81AB81BC81820F931FA41F4B
:10146000B51FB7FF03C00197A109B048E985FA8508
:1014700080839183A283B3839F772A960FB6F894D3
:10148000DEBF0FBECDBFDF91CF91FF90EF90DF9019
:10149000CF9008950E94E509089583E091E00E94AD
:1014A000E5090895B0E0A0E0809303019093040162
:1014B000A0930501B09306010895FB01DC0102C071
:1014C00005900D9241505040D8F70895AEE0B0E03D
:1014D000ECE6FAE00C94400D0D891E8986E08C83C1
:1014E0001A8309838FEF9FE79E838D83AE01475E4A
:1014F0005F4F6F89788DCE0101960E94890A2F81F6
:101500003885020F131FF80110822E96E4E00C9428
:101510005C0DAFE0B0E0EFE8FAE00C94320D7C0136
:101520003B018A01DC0117961C921E9216971396B6
:101530008C9181FFBEC19AE0292EFE0131964F01A8
:10154000D70113969C91F30193FD859193FF8191AF
:101550003F01882309F444C1853239F493FD859114
:1015600093FF81913F01853229F4B70190E00E94F9
:10157000720CE6CFB12C412C512CBFE1B51538F0DF
:101580008B3209F188F4803201F1833221F157FC6A
:101590003AC020ED280F2A3040F556FE1FC0B29CFD
:1015A000200D1124B22E06C08D3291F0803379F7D0
:1015B000689450F8F30193FD859193FF81913F0169
:1015C0008111DBCF20C0689451F8689452F8F2CFB3
:1015D000689453F8EFCF689454F8ECCF429C200DF8
:1015E0001124422E689455F8E5CF8E3229F456FC2A
:1015F000F7C0689456F8DECF8C3619F4689457F823
:10160000D9CF8836B9F2982F9F7D95549330C0F08A
:10161000833681F18337A1F1833509F05BC0D801AE
:10162000CD90DD908D016B2D70E056FC02C06FEF08
:101630007FEFC6010E945C0C5C01689457F80AC0F9
:101640000C5F1F4FEFE3E983AA24A394B12C64013C
:10165000E89457F853FE29C0342CA114B10451F575
:10166000332009F46DCFB70180E290E00E94720C44
:101670003A94F6CFD8018C9189830E5F1F4FE4CF47
:10168000F801C190D1908F016B2D70E056FC02C023
:101690006FEF7FEFC6010E94670C5C01D9CFB701E5
:1016A00080E290E00E94720C4A944A141B0409F0F4
:1016B000B0F7D2CFF60157FC859157FE81916F01AB
:1016C000B70190E00E94720C31103A94B1E0AB1A6D
:1016D000B108C3CF843619F0893609F071C0F8011A
:1016E00057FE67C061917191819191918F01E52DB4
:1016F000EF76DE2E97FF09C09095809570956195E5
:101700007F4F8F4F9F4F6894D7F82AE030E0A401B5
:101710000E94A20CC82EC818AC2C5D2CD6FE0CC0A2
:10172000E89450F8CB1440F4D4FE05C0D2FC03C0BA
:101730005D2D5E7E552EAB2C54FE93C0FE01EC0D4C
:10174000F11D8081803309F085C0652D697E562E9C
:10175000752D7870372E53FC93C050FE8DC0BC2C75
:10176000A41410F4B40CBA1854FE90C0B70180E36E
:1017700090E00E94720C52FE07C088E751FC88E599
:1017800090E0B7010E94720CCB1408F48BC0CA948D
:10179000D12C8FEFC81AD80AC80CD91CD6018E914B
:1017A0006D01B70190E00E94720C8C149D04B1F79A
:1017B00057CF61917191072E000C880B990B96CF32
:1017C000D52CE894D4F82AE0853729F1F52DF97F56
:1017D000DF2E8037A1F058F48835A1F08F36D1F094
:1017E000F701868197812F96E2E10C944E0D8837A0
:1017F000B9F7D4FE02C06894D2F820E10CC0689416
:10180000D4F8F7CF54FE03C02F2F2660D22E20E14C
:1018100032E002C028E030E0F801D7FE15C0419167
:101820005191619171914C875D876E877F878F01A0
:10183000A4016C857D858E859F850E94A20CC82E93
:10184000C818E894D7F868CF81919191AC0170E005
:1018500060E0E9CF52FC02C0A3947ACFA394A39492
:1018600077CF852D867809F473CFF6CFB70180E264
:1018700090E00E94720CA394A414C0F3312C74CF96
:10188000342C3A18A41408F46FCFF8CF852D86783D
:1018900009F47ACF8BE251FE80E257FC8DE2B7016A
:1018A00090E070CFB70180E390E00E94720CBA9490
:1018B0006BCF8FEF9FEF97CFFC0105906150704089
:1018C0000110D8F7809590958E0F9F1F0895FC0109
:1018D0006150704001900110D8F7809590958E0F5F
:1018E0009F1F08950F931F93CF93DF93182F092FF6
:1018F000EB018B8181FD09C01FEF0FEF812F902F2E
:10190000DF91CF911F910F91089582FF14C02E8116
:101910003F818C819D81281739073CF4E881F9814A
:10192000CF0101969983888310838E819F810196D0
:101930009F838E83E3CFE885F985812F0995892BD5
:10194000A1F3DACFFA01AA27283051F1203181F131
:10195000E8946F936E7F6E5F7F4F8F4F9F4FAF4FB7
:10196000B1E03ED0B4E03CD0670F781F891F9A1FCA
:10197000A11D680F791F8A1F911DA11D6A0F711D7E
:10198000811D911DA11D20D009F468943F912AE08A
:10199000269F11243019305D3193DEF6CF01089572
:1019A000462F4770405D4193B3E00FD0C9F7F6CFA3
:1019B000462F4F70405D4A3318F0495D31FD40526B
:1019C000419302D0A9F7EACFB4E0A6959795879501
:1019D00077956795BA95C9F70097610571050895E0
:1019E0009B01AC010A2E069457954795379527958C
:1019F000BA95C9F7620F731F841F951FA01D089524
:101A0000052E97FB1EF400940E94170D57FD07D07A
:101A10000E94690D07FC03D04EF40C94170D5095ED
:101A20004095309521953F4F4F4F5F4F08959095CA
:101A30008095709561957F4F8F4F9F4F08950E94BD
:101A40008B0DA59F900DB49F900DA49F800D911DAF
:101A500011240895B7FF0C941F0D0E941F0D821BC7
:101A6000930B08952F923F924F925F926F927F92C5
:101A70008F929F92AF92BF92CF92DF92EF92FF929E
:101A80000F931F93CF93DF93CDB7DEB7CA1BDB0B4A
:101A90000FB6F894DEBF0FBECDBF09942A883988EF
:101AA00048885F846E847D848C849B84AA84B984F6
:101AB000C884DF80EE80FD800C811B81AA81B98102
:101AC000CE0FD11D0FB6F894DEBF0FBECDBFED0116
:101AD0000895A1E21A2EAA1BBB1BFD010DC0AA1F6F
:101AE000BB1FEE1FFF1FA217B307E407F50720F087
:101AF000A21BB30BE40BF50B661F771F881F991F02
:101B00001A9469F760957095809590959B01AC014A
:101B1000BD01CF010895A29FB001B39FC001A39F53
:101B2000700D811D1124911DB29F700D811D112416
:081B3000911D0895F894FFCF08
:101B38000114000100000047414D45204F56455211
:101B48000053484F4F542041205448494E470050B5
:101B5800524553532053484F4F5400564F43C38A5E
:101B68002056454E43455521000A0A0A0A0A0A0A20
:101B78005074733A25640054696D653A2564000011
:00000001FF
